{
  "_format": "hh-sol-artifact-1",
  "contractName": "ToluBabaNFT",
  "sourceName": "contracts/ToluBabaNFT.sol",
  "abi": [
    {
      "inputs": [],
      "stateMutability": "nonpayable",
      "type": "constructor"
    },
    {
      "anonymous": false,
      "inputs": [
        {
          "indexed": true,
          "internalType": "address",
          "name": "owner",
          "type": "address"
        },
        {
          "indexed": true,
          "internalType": "address",
          "name": "approved",
          "type": "address"
        },
        {
          "indexed": true,
          "internalType": "uint256",
          "name": "tokenId",
          "type": "uint256"
        }
      ],
      "name": "Approval",
      "type": "event"
    },
    {
      "anonymous": false,
      "inputs": [
        {
          "indexed": true,
          "internalType": "address",
          "name": "owner",
          "type": "address"
        },
        {
          "indexed": true,
          "internalType": "address",
          "name": "operator",
          "type": "address"
        },
        {
          "indexed": false,
          "internalType": "bool",
          "name": "approved",
          "type": "bool"
        }
      ],
      "name": "ApprovalForAll",
      "type": "event"
    },
    {
      "anonymous": false,
      "inputs": [
        {
          "indexed": true,
          "internalType": "address",
          "name": "previousOwner",
          "type": "address"
        },
        {
          "indexed": true,
          "internalType": "address",
          "name": "newOwner",
          "type": "address"
        }
      ],
      "name": "OwnershipTransferred",
      "type": "event"
    },
    {
      "anonymous": false,
      "inputs": [
        {
          "indexed": true,
          "internalType": "address",
          "name": "from",
          "type": "address"
        },
        {
          "indexed": true,
          "internalType": "address",
          "name": "to",
          "type": "address"
        },
        {
          "indexed": true,
          "internalType": "uint256",
          "name": "tokenId",
          "type": "uint256"
        }
      ],
      "name": "Transfer",
      "type": "event"
    },
    {
      "inputs": [
        {
          "internalType": "address",
          "name": "to",
          "type": "address"
        },
        {
          "internalType": "uint256",
          "name": "tokenId",
          "type": "uint256"
        }
      ],
      "name": "approve",
      "outputs": [],
      "stateMutability": "nonpayable",
      "type": "function"
    },
    {
      "inputs": [
        {
          "internalType": "address",
          "name": "owner",
          "type": "address"
        }
      ],
      "name": "balanceOf",
      "outputs": [
        {
          "internalType": "uint256",
          "name": "",
          "type": "uint256"
        }
      ],
      "stateMutability": "view",
      "type": "function"
    },
    {
      "inputs": [
        {
          "internalType": "uint256",
          "name": "tokenId",
          "type": "uint256"
        }
      ],
      "name": "getApproved",
      "outputs": [
        {
          "internalType": "address",
          "name": "",
          "type": "address"
        }
      ],
      "stateMutability": "view",
      "type": "function"
    },
    {
      "inputs": [
        {
          "internalType": "address",
          "name": "owner",
          "type": "address"
        },
        {
          "internalType": "address",
          "name": "operator",
          "type": "address"
        }
      ],
      "name": "isApprovedForAll",
      "outputs": [
        {
          "internalType": "bool",
          "name": "",
          "type": "bool"
        }
      ],
      "stateMutability": "view",
      "type": "function"
    },
    {
      "inputs": [],
      "name": "isPublicMintEnabled",
      "outputs": [
        {
          "internalType": "bool",
          "name": "",
          "type": "bool"
        }
      ],
      "stateMutability": "view",
      "type": "function"
    },
    {
      "inputs": [],
      "name": "maxPerWallet",
      "outputs": [
        {
          "internalType": "uint256",
          "name": "",
          "type": "uint256"
        }
      ],
      "stateMutability": "view",
      "type": "function"
    },
    {
      "inputs": [],
      "name": "maxSupply",
      "outputs": [
        {
          "internalType": "uint256",
          "name": "",
          "type": "uint256"
        }
      ],
      "stateMutability": "view",
      "type": "function"
    },
    {
      "inputs": [
        {
          "internalType": "uint256",
          "name": "quantity_",
          "type": "uint256"
        }
      ],
      "name": "mint",
      "outputs": [],
      "stateMutability": "payable",
      "type": "function"
    },
    {
      "inputs": [],
      "name": "mintPrice",
      "outputs": [
        {
          "internalType": "uint256",
          "name": "",
          "type": "uint256"
        }
      ],
      "stateMutability": "view",
      "type": "function"
    },
    {
      "inputs": [],
      "name": "name",
      "outputs": [
        {
          "internalType": "string",
          "name": "",
          "type": "string"
        }
      ],
      "stateMutability": "view",
      "type": "function"
    },
    {
      "inputs": [],
      "name": "owner",
      "outputs": [
        {
          "internalType": "address",
          "name": "",
          "type": "address"
        }
      ],
      "stateMutability": "view",
      "type": "function"
    },
    {
      "inputs": [
        {
          "internalType": "uint256",
          "name": "tokenId",
          "type": "uint256"
        }
      ],
      "name": "ownerOf",
      "outputs": [
        {
          "internalType": "address",
          "name": "",
          "type": "address"
        }
      ],
      "stateMutability": "view",
      "type": "function"
    },
    {
      "inputs": [
        {
          "internalType": "uint256",
          "name": "tokenId",
          "type": "uint256"
        }
      ],
      "name": "pickRandomFirstWord",
      "outputs": [
        {
          "internalType": "string",
          "name": "",
          "type": "string"
        }
      ],
      "stateMutability": "view",
      "type": "function"
    },
    {
      "inputs": [
        {
          "internalType": "uint256",
          "name": "tokenId",
          "type": "uint256"
        }
      ],
      "name": "pickRandomSecondWord",
      "outputs": [
        {
          "internalType": "string",
          "name": "",
          "type": "string"
        }
      ],
      "stateMutability": "view",
      "type": "function"
    },
    {
      "inputs": [
        {
          "internalType": "uint256",
          "name": "tokenId",
          "type": "uint256"
        }
      ],
      "name": "pickRandomThirdWord",
      "outputs": [
        {
          "internalType": "string",
          "name": "",
          "type": "string"
        }
      ],
      "stateMutability": "view",
      "type": "function"
    },
    {
      "inputs": [],
      "name": "renounceOwnership",
      "outputs": [],
      "stateMutability": "nonpayable",
      "type": "function"
    },
    {
      "inputs": [
        {
          "internalType": "address",
          "name": "from",
          "type": "address"
        },
        {
          "internalType": "address",
          "name": "to",
          "type": "address"
        },
        {
          "internalType": "uint256",
          "name": "tokenId",
          "type": "uint256"
        }
      ],
      "name": "safeTransferFrom",
      "outputs": [],
      "stateMutability": "nonpayable",
      "type": "function"
    },
    {
      "inputs": [
        {
          "internalType": "address",
          "name": "from",
          "type": "address"
        },
        {
          "internalType": "address",
          "name": "to",
          "type": "address"
        },
        {
          "internalType": "uint256",
          "name": "tokenId",
          "type": "uint256"
        },
        {
          "internalType": "bytes",
          "name": "data",
          "type": "bytes"
        }
      ],
      "name": "safeTransferFrom",
      "outputs": [],
      "stateMutability": "nonpayable",
      "type": "function"
    },
    {
      "inputs": [
        {
          "internalType": "address",
          "name": "operator",
          "type": "address"
        },
        {
          "internalType": "bool",
          "name": "approved",
          "type": "bool"
        }
      ],
      "name": "setApprovalForAll",
      "outputs": [],
      "stateMutability": "nonpayable",
      "type": "function"
    },
    {
      "inputs": [
        {
          "internalType": "string",
          "name": "baseTokenUri_",
          "type": "string"
        }
      ],
      "name": "setBaseTokenUri",
      "outputs": [],
      "stateMutability": "nonpayable",
      "type": "function"
    },
    {
      "inputs": [
        {
          "internalType": "bool",
          "name": "isPublicMintEnabled_",
          "type": "bool"
        }
      ],
      "name": "setIsPublicMintEnabled",
      "outputs": [],
      "stateMutability": "nonpayable",
      "type": "function"
    },
    {
      "inputs": [
        {
          "internalType": "bytes4",
          "name": "interfaceId",
          "type": "bytes4"
        }
      ],
      "name": "supportsInterface",
      "outputs": [
        {
          "internalType": "bool",
          "name": "",
          "type": "bool"
        }
      ],
      "stateMutability": "view",
      "type": "function"
    },
    {
      "inputs": [],
      "name": "symbol",
      "outputs": [
        {
          "internalType": "string",
          "name": "",
          "type": "string"
        }
      ],
      "stateMutability": "view",
      "type": "function"
    },
    {
      "inputs": [
        {
          "internalType": "uint256",
          "name": "tokenId",
          "type": "uint256"
        }
      ],
      "name": "tokenURI",
      "outputs": [
        {
          "internalType": "string",
          "name": "",
          "type": "string"
        }
      ],
      "stateMutability": "view",
      "type": "function"
    },
    {
      "inputs": [
        {
          "internalType": "uint256",
          "name": "tokenId_",
          "type": "uint256"
        }
      ],
      "name": "tokenUri",
      "outputs": [
        {
          "internalType": "string",
          "name": "",
          "type": "string"
        }
      ],
      "stateMutability": "view",
      "type": "function"
    },
    {
      "inputs": [],
      "name": "totalSupply",
      "outputs": [
        {
          "internalType": "uint256",
          "name": "",
          "type": "uint256"
        }
      ],
      "stateMutability": "view",
      "type": "function"
    },
    {
      "inputs": [
        {
          "internalType": "address",
          "name": "from",
          "type": "address"
        },
        {
          "internalType": "address",
          "name": "to",
          "type": "address"
        },
        {
          "internalType": "uint256",
          "name": "tokenId",
          "type": "uint256"
        }
      ],
      "name": "transferFrom",
      "outputs": [],
      "stateMutability": "nonpayable",
      "type": "function"
    },
    {
      "inputs": [
        {
          "internalType": "address",
          "name": "newOwner",
          "type": "address"
        }
      ],
      "name": "transferOwnership",
      "outputs": [],
      "stateMutability": "nonpayable",
      "type": "function"
    },
    {
      "inputs": [
        {
          "internalType": "address",
          "name": "",
          "type": "address"
        }
      ],
      "name": "walletMints",
      "outputs": [
        {
          "internalType": "uint256",
          "name": "",
          "type": "uint256"
        }
      ],
      "stateMutability": "view",
      "type": "function"
    },
    {
      "inputs": [],
      "name": "withdraw",
      "outputs": [],
      "stateMutability": "nonpayable",
      "type": "function"
    },
    {
      "inputs": [],
      "name": "withdrawWallet",
      "outputs": [
        {
          "internalType": "address payable",
          "name": "",
          "type": "address"
        }
      ],
      "stateMutability": "view",
      "type": "function"
    }
  ],
  "bytecode": "0x6080604052604051806101c001604052806040518060400160405280600581526020017f4a616e696500000000000000000000000000000000000000000000000000000081525081526020016040518060400160405280600581526020017f53616c6c7900000000000000000000000000000000000000000000000000000081525081526020016040518060400160405280600681526020017f52656167616e000000000000000000000000000000000000000000000000000081525081526020016040518060400160405280600681526020017f4b61696c6579000000000000000000000000000000000000000000000000000081525081526020016040518060400160405280600781526020017f4a61796c65656e0000000000000000000000000000000000000000000000000081525081526020016040518060400160405280600581526020017f5469616e6100000000000000000000000000000000000000000000000000000081525081526020016040518060400160405280600681526020017f4d656c616e79000000000000000000000000000000000000000000000000000081525081526020016040518060400160405280600781526020017f536861796c65650000000000000000000000000000000000000000000000000081525081526020016040518060400160405280600881526020017f446179616e61726100000000000000000000000000000000000000000000000081525081526020016040518060400160405280600681526020017f436965727261000000000000000000000000000000000000000000000000000081525081526020016040518060400160405280600681526020017f417665726965000000000000000000000000000000000000000000000000000081525081526020016040518060400160405280600681526020017f417665726965000000000000000000000000000000000000000000000000000081525081526020016040518060400160405280600881526020017f446179616e61726100000000000000000000000000000000000000000000000081525081526020016040518060400160405280600581526020017f416c696e61000000000000000000000000000000000000000000000000000000815250815250600f90600e6200035a929190620009f3565b506040518060e001604052806040518060400160405280600581526020017f4a616c796e00000000000000000000000000000000000000000000000000000081525081526020016040518060400160405280600881526020017f4b7269737469616e00000000000000000000000000000000000000000000000081525081526020016040518060400160405280600481526020017f457a72610000000000000000000000000000000000000000000000000000000081525081526020016040518060400160405280600781526020017f5370656e6365720000000000000000000000000000000000000000000000000081525081526020016040518060400160405280600581526020017f4a61766f6e00000000000000000000000000000000000000000000000000000081525081526020016040518060400160405280600881526020017f457665726172646f00000000000000000000000000000000000000000000000081525081526020016040518060400160405280600781526020017f49676e6163696f0000000000000000000000000000000000000000000000000081525081525060109060076200051392919062000a5a565b506040518061018001604052806040518060400160405280600a81526020017f416c657373616e64726f0000000000000000000000000000000000000000000081525081526020016040518060400160405280600881526020017f4c6f727261696e6500000000000000000000000000000000000000000000000081525081526020016040518060400160405280600581526020017f4b616c6f6200000000000000000000000000000000000000000000000000000081525081526020016040518060400160405280600481526020017f4372757a0000000000000000000000000000000000000000000000000000000081525081526020016040518060400160405280600581526020017f417370656e00000000000000000000000000000000000000000000000000000081525081526020016040518060400160405280600681526020017f4a6572656d79000000000000000000000000000000000000000000000000000081525081526020016040518060400160405280600581526020017f4d6172636f00000000000000000000000000000000000000000000000000000081525081526020016040518060400160405280600481526020017f547261650000000000000000000000000000000000000000000000000000000081525081526020016040518060400160405280600681526020017f44617272696e000000000000000000000000000000000000000000000000000081525081526020016040518060400160405280600581526020017f4a616c696e00000000000000000000000000000000000000000000000000000081525081526020016040518060400160405280600681526020017f4d6f6e696b61000000000000000000000000000000000000000000000000000081525081526020016040518060400160405280600681526020017f446176656f6e0000000000000000000000000000000000000000000000000000815250815250601190600c620007f492919062000ac1565b5060405180610160016040528061012f8152602001620046d361012f9139601290805190602001906200082992919062000b28565b503480156200083757600080fd5b506040518060400160405280600781526020017f546f6c754e4654000000000000000000000000000000000000000000000000008152506040518060400160405280600481526020017f554c4f54000000000000000000000000000000000000000000000000000000008152508160009080519060200190620008bc92919062000b28565b508060019080519060200190620008d592919062000b28565b505050620008f8620008ec6200092560201b60201c565b6200092d60201b60201c565b66038d7ea4c6800060078190555060006008819055506101006009819055506002600a8190555062000cab565b600033905090565b6000600660009054906101000a900473ffffffffffffffffffffffffffffffffffffffff16905081600660006101000a81548173ffffffffffffffffffffffffffffffffffffffff021916908373ffffffffffffffffffffffffffffffffffffffff1602179055508173ffffffffffffffffffffffffffffffffffffffff168173ffffffffffffffffffffffffffffffffffffffff167f8be0079c531659141344cd1fd0a4f28419497f9722a3daafe3b4186f6b6457e060405160405180910390a35050565b82805482825590600052602060002090810192821562000a47579160200282015b8281111562000a4657825182908051906020019062000a3592919062000b28565b509160200191906001019062000a14565b5b50905062000a56919062000bb9565b5090565b82805482825590600052602060002090810192821562000aae579160200282015b8281111562000aad57825182908051906020019062000a9c92919062000b28565b509160200191906001019062000a7b565b5b50905062000abd919062000bb9565b5090565b82805482825590600052602060002090810192821562000b15579160200282015b8281111562000b1457825182908051906020019062000b0392919062000b28565b509160200191906001019062000ae2565b5b50905062000b24919062000bb9565b5090565b82805462000b369062000c46565b90600052602060002090601f01602090048101928262000b5a576000855562000ba6565b82601f1062000b7557805160ff191683800117855562000ba6565b8280016001018555821562000ba6579182015b8281111562000ba557825182559160200191906001019062000b88565b5b50905062000bb5919062000be1565b5090565b5b8082111562000bdd576000818162000bd3919062000c00565b5060010162000bba565b5090565b5b8082111562000bfc57600081600090555060010162000be2565b5090565b50805462000c0e9062000c46565b6000825580601f1062000c22575062000c43565b601f01602090049060005260206000209081019062000c42919062000be1565b5b50565b6000600282049050600182168062000c5f57607f821691505b6020821081141562000c765762000c7562000c7c565b5b50919050565b7f4e487b7100000000000000000000000000000000000000000000000000000000600052602260045260246000fd5b613a188062000cbb6000396000f3fe6080604052600436106101d85760003560e01c806370a0823111610102578063b187301f11610095578063d5abeb0111610064578063d5abeb01146106c3578063e985e9c5146106ee578063f0293fd31461072b578063f2fde38b14610768576101d8565b8063b187301f146105e3578063b88d4fde14610620578063c575757a14610649578063c87b56dd14610686576101d8565b806395652cfa116100d157806395652cfa1461054a57806395d89b4114610573578063a0712d681461059e578063a22cb465146105ba576101d8565b806370a08231146104a0578063715018a6146104dd57806385d178f4146104f45780638da5cb5b1461051f576101d8565b80632373ac221161017a57806342842e0e1161014957806342842e0e146103e4578063453c23101461040d5780636352211e146104385780636817c76c14610475576101d8565b80632373ac221461033e57806323b872dd146103675780632de38d68146103905780633ccfd60b146103cd576101d8565b8063081812fc116101b6578063081812fc14610270578063095ea7b3146102ad5780631675f455146102d657806318160ddd14610313576101d8565b80630116bc2d146101dd57806301ffc9a71461020857806306fdde0314610245575b600080fd5b3480156101e957600080fd5b506101f2610791565b6040516101ff9190612e29565b60405180910390f35b34801561021457600080fd5b5061022f600480360381019061022a919061277f565b6107a4565b60405161023c9190612e29565b60405180910390f35b34801561025157600080fd5b5061025a610886565b6040516102679190612e44565b60405180910390f35b34801561027c57600080fd5b5061029760048036038101906102929190612816565b610918565b6040516102a49190612da7565b60405180910390f35b3480156102b957600080fd5b506102d460048036038101906102cf919061271a565b61095e565b005b3480156102e257600080fd5b506102fd60048036038101906102f89190612816565b610a76565b60405161030a9190612e44565b60405180910390f35b34801561031f57600080fd5b50610328610af2565b60405161033591906130a6565b60405180910390f35b34801561034a57600080fd5b5061036560048036038101906103609190612756565b610af8565b005b34801561037357600080fd5b5061038e60048036038101906103899190612614565b610b1d565b005b34801561039c57600080fd5b506103b760048036038101906103b29190612816565b610b7d565b6040516103c49190612e44565b60405180910390f35b3480156103d957600080fd5b506103e2610c9b565b005b3480156103f057600080fd5b5061040b60048036038101906104069190612614565b610d74565b005b34801561041957600080fd5b50610422610d94565b60405161042f91906130a6565b60405180910390f35b34801561044457600080fd5b5061045f600480360381019061045a9190612816565b610d9a565b60405161046c9190612da7565b60405180910390f35b34801561048157600080fd5b5061048a610e4c565b60405161049791906130a6565b60405180910390f35b3480156104ac57600080fd5b506104c760048036038101906104c291906125af565b610e52565b6040516104d491906130a6565b60405180910390f35b3480156104e957600080fd5b506104f2610f0a565b005b34801561050057600080fd5b50610509610f1e565b6040516105169190612dc2565b60405180910390f35b34801561052b57600080fd5b50610534610f44565b6040516105419190612da7565b60405180910390f35b34801561055657600080fd5b50610571600480360381019061056c91906127d1565b610f6e565b005b34801561057f57600080fd5b50610588610f8c565b6040516105959190612e44565b60405180910390f35b6105b860048036038101906105b39190612816565b61101e565b005b3480156105c657600080fd5b506105e160048036038101906105dc91906126de565b6111a6565b005b3480156105ef57600080fd5b5061060a60048036038101906106059190612816565b6111bc565b6040516106179190612e44565b60405180910390f35b34801561062c57600080fd5b5061064760048036038101906106429190612663565b6112da565b005b34801561065557600080fd5b50610670600480360381019061066b9190612816565b61133c565b60405161067d9190612e44565b60405180910390f35b34801561069257600080fd5b506106ad60048036038101906106a89190612816565b61145a565b6040516106ba9190612e44565b60405180910390f35b3480156106cf57600080fd5b506106d86114c2565b6040516106e591906130a6565b60405180910390f35b3480156106fa57600080fd5b50610715600480360381019061071091906125d8565b6114c8565b6040516107229190612e29565b60405180910390f35b34801561073757600080fd5b50610752600480360381019061074d91906125af565b61155c565b60405161075f91906130a6565b60405180910390f35b34801561077457600080fd5b5061078f600480360381019061078a91906125af565b611574565b005b600b60009054906101000a900460ff1681565b60007f80ac58cd000000000000000000000000000000000000000000000000000000007bffffffffffffffffffffffffffffffffffffffffffffffffffffffff1916827bffffffffffffffffffffffffffffffffffffffffffffffffffffffff1916148061086f57507f5b5e139f000000000000000000000000000000000000000000000000000000007bffffffffffffffffffffffffffffffffffffffffffffffffffffffff1916827bffffffffffffffffffffffffffffffffffffffffffffffffffffffff1916145b8061087f575061087e826115f8565b5b9050919050565b606060008054610895906132fd565b80601f01602080910402602001604051908101604052809291908181526020018280546108c1906132fd565b801561090e5780601f106108e35761010080835404028352916020019161090e565b820191906000526020600020905b8154815290600101906020018083116108f157829003601f168201915b5050505050905090565b600061092382611662565b6004600083815260200190815260200160002060009054906101000a900473ffffffffffffffffffffffffffffffffffffffff169050919050565b600061096982610d9a565b90508073ffffffffffffffffffffffffffffffffffffffff168373ffffffffffffffffffffffffffffffffffffffff1614156109da576040517f08c379a00000000000000000000000000000000000000000000000000000000081526004016109d190613046565b60405180910390fd5b8073ffffffffffffffffffffffffffffffffffffffff166109f96116ad565b73ffffffffffffffffffffffffffffffffffffffff161480610a285750610a2781610a226116ad565b6114c8565b5b610a67576040517f08c379a0000000000000000000000000000000000000000000000000000000008152600401610a5e90612f86565b60405180910390fd5b610a7183836116b5565b505050565b6060610a818261176e565b610ac0576040517f08c379a0000000000000000000000000000000000000000000000000000000008152600401610ab790612e86565b60405180910390fd5b600c610acb836117da565b604051602001610adc929190612cfd565b6040516020818303038152906040529050919050565b60085481565b610b00611987565b80600b60006101000a81548160ff02191690831515021790555050565b610b2e610b286116ad565b82611a05565b610b6d576040517f08c379a0000000000000000000000000000000000000000000000000000000008152600401610b6490613066565b60405180910390fd5b610b78838383611a9a565b505050565b60606000610bb1610b8d846117da565b604051602001610b9d9190612d70565b604051602081830303815290604052611d01565b905060108054905081610bc491906133a9565b905060108181548110610c00577f4e487b7100000000000000000000000000000000000000000000000000000000600052603260045260246000fd5b906000526020600020018054610c15906132fd565b80601f0160208091040260200160405190810160405280929190818152602001828054610c41906132fd565b8015610c8e5780601f10610c6357610100808354040283529160200191610c8e565b820191906000526020600020905b815481529060010190602001808311610c7157829003601f168201915b5050505050915050919050565b610ca3611987565b6000600d60009054906101000a900473ffffffffffffffffffffffffffffffffffffffff1673ffffffffffffffffffffffffffffffffffffffff1647604051610ceb90612d92565b60006040518083038185875af1925050503d8060008114610d28576040519150601f19603f3d011682016040523d82523d6000602084013e610d2d565b606091505b5050905080610d71576040517f08c379a0000000000000000000000000000000000000000000000000000000008152600401610d6890613086565b60405180910390fd5b50565b610d8f838383604051806020016040528060008152506112da565b505050565b600a5481565b6000806002600084815260200190815260200160002060009054906101000a900473ffffffffffffffffffffffffffffffffffffffff169050600073ffffffffffffffffffffffffffffffffffffffff168173ffffffffffffffffffffffffffffffffffffffff161415610e43576040517f08c379a0000000000000000000000000000000000000000000000000000000008152600401610e3a90613006565b60405180910390fd5b80915050919050565b60075481565b60008073ffffffffffffffffffffffffffffffffffffffff168273ffffffffffffffffffffffffffffffffffffffff161415610ec3576040517f08c379a0000000000000000000000000000000000000000000000000000000008152600401610eba90612f66565b60405180910390fd5b600360008373ffffffffffffffffffffffffffffffffffffffff1673ffffffffffffffffffffffffffffffffffffffff168152602001908152602001600020549050919050565b610f12611987565b610f1c6000611d34565b565b600d60009054906101000a900473ffffffffffffffffffffffffffffffffffffffff1681565b6000600660009054906101000a900473ffffffffffffffffffffffffffffffffffffffff16905090565b610f76611987565b8181600c9190610f879291906123f1565b505050565b606060018054610f9b906132fd565b80601f0160208091040260200160405190810160405280929190818152602001828054610fc7906132fd565b80156110145780601f10610fe957610100808354040283529160200191611014565b820191906000526020600020905b815481529060010190602001808311610ff757829003601f168201915b5050505050905090565b600b60009054906101000a900460ff1661106d576040517f08c379a000000000000000000000000000000000000000000000000000000000815260040161106490612f06565b60405180910390fd5b6009548160085461107e919061317a565b11156110bf576040517f08c379a00000000000000000000000000000000000000000000000000000000081526004016110b690612fc6565b60405180910390fd5b600a5481600e60003373ffffffffffffffffffffffffffffffffffffffff1673ffffffffffffffffffffffffffffffffffffffff1681526020019081526020016000205461110d919061317a565b111561114e576040517f08c379a000000000000000000000000000000000000000000000000000000000815260040161114590613026565b60405180910390fd5b60005b818110156111a2576000600160085461116a919061317a565b90506008600081548092919061117f90613360565b919050555061118e3382611dfa565b50808061119a90613360565b915050611151565b5050565b6111b86111b16116ad565b8383611e18565b5050565b606060006111f06111cc846117da565b6040516020016111dc9190612d4e565b604051602081830303815290604052611d01565b9050600f805490508161120391906133a9565b9050600f818154811061123f577f4e487b7100000000000000000000000000000000000000000000000000000000600052603260045260246000fd5b906000526020600020018054611254906132fd565b80601f0160208091040260200160405190810160405280929190818152602001828054611280906132fd565b80156112cd5780601f106112a2576101008083540402835291602001916112cd565b820191906000526020600020905b8154815290600101906020018083116112b057829003601f168201915b5050505050915050919050565b6112eb6112e56116ad565b83611a05565b61132a576040517f08c379a000000000000000000000000000000000000000000000000000000000815260040161132190613066565b60405180910390fd5b61133684848484611f85565b50505050565b6060600061137061134c846117da565b60405160200161135c9190612d2c565b604051602081830303815290604052611d01565b90506011805490508161138391906133a9565b9050601181815481106113bf577f4e487b7100000000000000000000000000000000000000000000000000000000600052603260045260246000fd5b9060005260206000200180546113d4906132fd565b80601f0160208091040260200160405190810160405280929190818152602001828054611400906132fd565b801561144d5780601f106114225761010080835404028352916020019161144d565b820191906000526020600020905b81548152906001019060200180831161143057829003601f168201915b5050505050915050919050565b606061146582611662565b600061146f611fe1565b9050600081511161148f57604051806020016040528060008152506114ba565b80611499846117da565b6040516020016114aa929190612cd9565b6040516020818303038152906040525b915050919050565b60095481565b6000600560008473ffffffffffffffffffffffffffffffffffffffff1673ffffffffffffffffffffffffffffffffffffffff16815260200190815260200160002060008373ffffffffffffffffffffffffffffffffffffffff1673ffffffffffffffffffffffffffffffffffffffff16815260200190815260200160002060009054906101000a900460ff16905092915050565b600e6020528060005260406000206000915090505481565b61157c611987565b600073ffffffffffffffffffffffffffffffffffffffff168173ffffffffffffffffffffffffffffffffffffffff1614156115ec576040517f08c379a00000000000000000000000000000000000000000000000000000000081526004016115e390612ea6565b60405180910390fd5b6115f581611d34565b50565b60007f01ffc9a7000000000000000000000000000000000000000000000000000000007bffffffffffffffffffffffffffffffffffffffffffffffffffffffff1916827bffffffffffffffffffffffffffffffffffffffffffffffffffffffff1916149050919050565b61166b8161176e565b6116aa576040517f08c379a00000000000000000000000000000000000000000000000000000000081526004016116a190613006565b60405180910390fd5b50565b600033905090565b816004600083815260200190815260200160002060006101000a81548173ffffffffffffffffffffffffffffffffffffffff021916908373ffffffffffffffffffffffffffffffffffffffff160217905550808273ffffffffffffffffffffffffffffffffffffffff1661172883610d9a565b73ffffffffffffffffffffffffffffffffffffffff167f8c5be1e5ebec7d5bd14f71427d1e84f3dd0314c0f7b2291e5b200ac8c7c3b92560405160405180910390a45050565b60008073ffffffffffffffffffffffffffffffffffffffff166002600084815260200190815260200160002060009054906101000a900473ffffffffffffffffffffffffffffffffffffffff1673ffffffffffffffffffffffffffffffffffffffff1614159050919050565b60606000821415611822576040518060400160405280600181526020017f30000000000000000000000000000000000000000000000000000000000000008152509050611982565b600082905060005b6000821461185457808061183d90613360565b915050600a8261184d91906131d0565b915061182a565b60008167ffffffffffffffff811115611896577f4e487b7100000000000000000000000000000000000000000000000000000000600052604160045260246000fd5b6040519080825280601f01601f1916602001820160405280156118c85781602001600182028036833780820191505090505b5090505b6000851461197b576001826118e19190613201565b9150600a856118f091906133a9565b60306118fc919061317a565b60f81b818381518110611938577f4e487b7100000000000000000000000000000000000000000000000000000000600052603260045260246000fd5b60200101907effffffffffffffffffffffffffffffffffffffffffffffffffffffffffffff1916908160001a905350600a8561197491906131d0565b94506118cc565b8093505050505b919050565b61198f6116ad565b73ffffffffffffffffffffffffffffffffffffffff166119ad610f44565b73ffffffffffffffffffffffffffffffffffffffff1614611a03576040517f08c379a00000000000000000000000000000000000000000000000000000000081526004016119fa90612fe6565b60405180910390fd5b565b600080611a1183610d9a565b90508073ffffffffffffffffffffffffffffffffffffffff168473ffffffffffffffffffffffffffffffffffffffff161480611a535750611a5281856114c8565b5b80611a9157508373ffffffffffffffffffffffffffffffffffffffff16611a7984610918565b73ffffffffffffffffffffffffffffffffffffffff16145b91505092915050565b8273ffffffffffffffffffffffffffffffffffffffff16611aba82610d9a565b73ffffffffffffffffffffffffffffffffffffffff1614611b10576040517f08c379a0000000000000000000000000000000000000000000000000000000008152600401611b0790612ec6565b60405180910390fd5b600073ffffffffffffffffffffffffffffffffffffffff168273ffffffffffffffffffffffffffffffffffffffff161415611b80576040517f08c379a0000000000000000000000000000000000000000000000000000000008152600401611b7790612f26565b60405180910390fd5b611b8b838383611ff8565b611b966000826116b5565b6001600360008573ffffffffffffffffffffffffffffffffffffffff1673ffffffffffffffffffffffffffffffffffffffff1681526020019081526020016000206000828254611be69190613201565b925050819055506001600360008473ffffffffffffffffffffffffffffffffffffffff1673ffffffffffffffffffffffffffffffffffffffff1681526020019081526020016000206000828254611c3d919061317a565b92505081905550816002600083815260200190815260200160002060006101000a81548173ffffffffffffffffffffffffffffffffffffffff021916908373ffffffffffffffffffffffffffffffffffffffff160217905550808273ffffffffffffffffffffffffffffffffffffffff168473ffffffffffffffffffffffffffffffffffffffff167fddf252ad1be2c89b69c2b068fc378daa952ba7f163c4a11628f55a4df523b3ef60405160405180910390a4611cfc838383611ffd565b505050565b600081604051602001611d149190612cc2565b6040516020818303038152906040528051906020012060001c9050919050565b6000600660009054906101000a900473ffffffffffffffffffffffffffffffffffffffff16905081600660006101000a81548173ffffffffffffffffffffffffffffffffffffffff021916908373ffffffffffffffffffffffffffffffffffffffff1602179055508173ffffffffffffffffffffffffffffffffffffffff168173ffffffffffffffffffffffffffffffffffffffff167f8be0079c531659141344cd1fd0a4f28419497f9722a3daafe3b4186f6b6457e060405160405180910390a35050565b611e14828260405180602001604052806000815250612002565b5050565b8173ffffffffffffffffffffffffffffffffffffffff168373ffffffffffffffffffffffffffffffffffffffff161415611e87576040517f08c379a0000000000000000000000000000000000000000000000000000000008152600401611e7e90612f46565b60405180910390fd5b80600560008573ffffffffffffffffffffffffffffffffffffffff1673ffffffffffffffffffffffffffffffffffffffff16815260200190815260200160002060008473ffffffffffffffffffffffffffffffffffffffff1673ffffffffffffffffffffffffffffffffffffffff16815260200190815260200160002060006101000a81548160ff0219169083151502179055508173ffffffffffffffffffffffffffffffffffffffff168373ffffffffffffffffffffffffffffffffffffffff167f17307eab39ab6107e8899845ad3d59bd9653f200f220920489ca2b5937696c3183604051611f789190612e29565b60405180910390a3505050565b611f90848484611a9a565b611f9c8484848461205d565b611fdb576040517f08c379a0000000000000000000000000000000000000000000000000000000008152600401611fd290612e66565b60405180910390fd5b50505050565b606060405180602001604052806000815250905090565b505050565b505050565b61200c83836121f4565b612019600084848461205d565b612058576040517f08c379a000000000000000000000000000000000000000000000000000000000815260040161204f90612e66565b60405180910390fd5b505050565b600061207e8473ffffffffffffffffffffffffffffffffffffffff166123ce565b156121e7578373ffffffffffffffffffffffffffffffffffffffff1663150b7a026120a76116ad565b8786866040518563ffffffff1660e01b81526004016120c99493929190612ddd565b602060405180830381600087803b1580156120e357600080fd5b505af192505050801561211457506040513d601f19601f8201168201806040525081019061211191906127a8565b60015b612197573d8060008114612144576040519150601f19603f3d011682016040523d82523d6000602084013e612149565b606091505b5060008151141561218f576040517f08c379a000000000000000000000000000000000000000000000000000000000815260040161218690612e66565b60405180910390fd5b805181602001fd5b63150b7a0260e01b7bffffffffffffffffffffffffffffffffffffffffffffffffffffffff1916817bffffffffffffffffffffffffffffffffffffffffffffffffffffffff1916149150506121ec565b600190505b949350505050565b600073ffffffffffffffffffffffffffffffffffffffff168273ffffffffffffffffffffffffffffffffffffffff161415612264576040517f08c379a000000000000000000000000000000000000000000000000000000000815260040161225b90612fa6565b60405180910390fd5b61226d8161176e565b156122ad576040517f08c379a00000000000000000000000000000000000000000000000000000000081526004016122a490612ee6565b60405180910390fd5b6122b960008383611ff8565b6001600360008473ffffffffffffffffffffffffffffffffffffffff1673ffffffffffffffffffffffffffffffffffffffff1681526020019081526020016000206000828254612309919061317a565b92505081905550816002600083815260200190815260200160002060006101000a81548173ffffffffffffffffffffffffffffffffffffffff021916908373ffffffffffffffffffffffffffffffffffffffff160217905550808273ffffffffffffffffffffffffffffffffffffffff16600073ffffffffffffffffffffffffffffffffffffffff167fddf252ad1be2c89b69c2b068fc378daa952ba7f163c4a11628f55a4df523b3ef60405160405180910390a46123ca60008383611ffd565b5050565b6000808273ffffffffffffffffffffffffffffffffffffffff163b119050919050565b8280546123fd906132fd565b90600052602060002090601f01602090048101928261241f5760008555612466565b82601f1061243857803560ff1916838001178555612466565b82800160010185558215612466579182015b8281111561246557823582559160200191906001019061244a565b5b5090506124739190612477565b5090565b5b80821115612490576000816000905550600101612478565b5090565b60006124a76124a2846130e6565b6130c1565b9050828152602081018484840111156124bf57600080fd5b6124ca8482856132bb565b509392505050565b6000813590506124e181613986565b92915050565b6000813590506124f68161399d565b92915050565b60008135905061250b816139b4565b92915050565b600081519050612520816139b4565b92915050565b600082601f83011261253757600080fd5b8135612547848260208601612494565b91505092915050565b60008083601f84011261256257600080fd5b8235905067ffffffffffffffff81111561257b57600080fd5b60208301915083600182028301111561259357600080fd5b9250929050565b6000813590506125a9816139cb565b92915050565b6000602082840312156125c157600080fd5b60006125cf848285016124d2565b91505092915050565b600080604083850312156125eb57600080fd5b60006125f9858286016124d2565b925050602061260a858286016124d2565b9150509250929050565b60008060006060848603121561262957600080fd5b6000612637868287016124d2565b9350506020612648868287016124d2565b92505060406126598682870161259a565b9150509250925092565b6000806000806080858703121561267957600080fd5b6000612687878288016124d2565b9450506020612698878288016124d2565b93505060406126a98782880161259a565b925050606085013567ffffffffffffffff8111156126c657600080fd5b6126d287828801612526565b91505092959194509250565b600080604083850312156126f157600080fd5b60006126ff858286016124d2565b9250506020612710858286016124e7565b9150509250929050565b6000806040838503121561272d57600080fd5b600061273b858286016124d2565b925050602061274c8582860161259a565b9150509250929050565b60006020828403121561276857600080fd5b6000612776848285016124e7565b91505092915050565b60006020828403121561279157600080fd5b600061279f848285016124fc565b91505092915050565b6000602082840312156127ba57600080fd5b60006127c884828501612511565b91505092915050565b600080602083850312156127e457600080fd5b600083013567ffffffffffffffff8111156127fe57600080fd5b61280a85828601612550565b92509250509250929050565b60006020828403121561282857600080fd5b60006128368482850161259a565b91505092915050565b61284881613247565b82525050565b61285781613235565b82525050565b61286681613259565b82525050565b60006128778261312c565b6128818185613142565b93506128918185602086016132ca565b61289a81613496565b840191505092915050565b60006128b082613137565b6128ba818561315e565b93506128ca8185602086016132ca565b6128d381613496565b840191505092915050565b60006128e982613137565b6128f3818561316f565b93506129038185602086016132ca565b80840191505092915050565b6000815461291c816132fd565b612926818661316f565b94506001821660008114612941576001811461295257612985565b60ff19831686528186019350612985565b61295b85613117565b60005b8381101561297d5781548189015260018201915060208101905061295e565b838801955050505b50505092915050565b600061299b60328361315e565b91506129a6826134a7565b604082019050919050565b60006129be60178361315e565b91506129c9826134f6565b602082019050919050565b60006129e160268361315e565b91506129ec8261351f565b604082019050919050565b6000612a0460258361315e565b9150612a0f8261356e565b604082019050919050565b6000612a27601c8361315e565b9150612a32826135bd565b602082019050919050565b6000612a4a600a8361316f565b9150612a55826135e6565b600a82019050919050565b6000612a6d601a8361315e565b9150612a788261360f565b602082019050919050565b6000612a9060248361315e565b9150612a9b82613638565b604082019050919050565b6000612ab360198361315e565b9150612abe82613687565b602082019050919050565b6000612ad6600b8361316f565b9150612ae1826136b0565b600b82019050919050565b6000612af960298361315e565b9150612b04826136d9565b604082019050919050565b6000612b1c603e8361315e565b9150612b2782613728565b604082019050919050565b6000612b3f60208361315e565b9150612b4a82613777565b602082019050919050565b6000612b6260108361315e565b9150612b6d826137a0565b602082019050919050565b6000612b8560058361316f565b9150612b90826137c9565b600582019050919050565b6000612ba860208361315e565b9150612bb3826137f2565b602082019050919050565b6000612bcb60188361315e565b9150612bd68261381b565b602082019050919050565b6000612bee60238361315e565b9150612bf982613844565b604082019050919050565b6000612c1160218361315e565b9150612c1c82613893565b604082019050919050565b6000612c34600a8361316f565b9150612c3f826138e2565b600a82019050919050565b6000612c57600083613153565b9150612c628261390b565b600082019050919050565b6000612c7a602e8361315e565b9150612c858261390e565b604082019050919050565b6000612c9d600f8361315e565b9150612ca88261395d565b602082019050919050565b612cbc816132b1565b82525050565b6000612cce82846128de565b915081905092915050565b6000612ce582856128de565b9150612cf182846128de565b91508190509392505050565b6000612d09828561290f565b9150612d1582846128de565b9150612d2082612b78565b91508190509392505050565b6000612d3782612a3d565b9150612d4382846128de565b915081905092915050565b6000612d5982612ac9565b9150612d6582846128de565b915081905092915050565b6000612d7b82612c27565b9150612d8782846128de565b915081905092915050565b6000612d9d82612c4a565b9150819050919050565b6000602082019050612dbc600083018461284e565b92915050565b6000602082019050612dd7600083018461283f565b92915050565b6000608082019050612df2600083018761284e565b612dff602083018661284e565b612e0c6040830185612cb3565b8181036060830152612e1e818461286c565b905095945050505050565b6000602082019050612e3e600083018461285d565b92915050565b60006020820190508181036000830152612e5e81846128a5565b905092915050565b60006020820190508181036000830152612e7f8161298e565b9050919050565b60006020820190508181036000830152612e9f816129b1565b9050919050565b60006020820190508181036000830152612ebf816129d4565b9050919050565b60006020820190508181036000830152612edf816129f7565b9050919050565b60006020820190508181036000830152612eff81612a1a565b9050919050565b60006020820190508181036000830152612f1f81612a60565b9050919050565b60006020820190508181036000830152612f3f81612a83565b9050919050565b60006020820190508181036000830152612f5f81612aa6565b9050919050565b60006020820190508181036000830152612f7f81612aec565b9050919050565b60006020820190508181036000830152612f9f81612b0f565b9050919050565b60006020820190508181036000830152612fbf81612b32565b9050919050565b60006020820190508181036000830152612fdf81612b55565b9050919050565b60006020820190508181036000830152612fff81612b9b565b9050919050565b6000602082019050818103600083015261301f81612bbe565b9050919050565b6000602082019050818103600083015261303f81612be1565b9050919050565b6000602082019050818103600083015261305f81612c04565b9050919050565b6000602082019050818103600083015261307f81612c6d565b9050919050565b6000602082019050818103600083015261309f81612c90565b9050919050565b60006020820190506130bb6000830184612cb3565b92915050565b60006130cb6130dc565b90506130d7828261332f565b919050565b6000604051905090565b600067ffffffffffffffff82111561310157613100613467565b5b61310a82613496565b9050602081019050919050565b60008190508160005260206000209050919050565b600081519050919050565b600081519050919050565b600082825260208201905092915050565b600081905092915050565b600082825260208201905092915050565b600081905092915050565b6000613185826132b1565b9150613190836132b1565b9250827fffffffffffffffffffffffffffffffffffffffffffffffffffffffffffffffff038211156131c5576131c46133da565b5b828201905092915050565b60006131db826132b1565b91506131e6836132b1565b9250826131f6576131f5613409565b5b828204905092915050565b600061320c826132b1565b9150613217836132b1565b92508282101561322a576132296133da565b5b828203905092915050565b600061324082613291565b9050919050565b600061325282613291565b9050919050565b60008115159050919050565b60007fffffffff0000000000000000000000000000000000000000000000000000000082169050919050565b600073ffffffffffffffffffffffffffffffffffffffff82169050919050565b6000819050919050565b82818337600083830152505050565b60005b838110156132e85780820151818401526020810190506132cd565b838111156132f7576000848401525b50505050565b6000600282049050600182168061331557607f821691505b6020821081141561332957613328613438565b5b50919050565b61333882613496565b810181811067ffffffffffffffff8211171561335757613356613467565b5b80604052505050565b600061336b826132b1565b91507fffffffffffffffffffffffffffffffffffffffffffffffffffffffffffffffff82141561339e5761339d6133da565b5b600182019050919050565b60006133b4826132b1565b91506133bf836132b1565b9250826133cf576133ce613409565b5b828206905092915050565b7f4e487b7100000000000000000000000000000000000000000000000000000000600052601160045260246000fd5b7f4e487b7100000000000000000000000000000000000000000000000000000000600052601260045260246000fd5b7f4e487b7100000000000000000000000000000000000000000000000000000000600052602260045260246000fd5b7f4e487b7100000000000000000000000000000000000000000000000000000000600052604160045260246000fd5b6000601f19601f8301169050919050565b7f4552433732313a207472616e7366657220746f206e6f6e20455243373231526560008201527f63656976657220696d706c656d656e7465720000000000000000000000000000602082015250565b7f546f6b656e20646f6573206e6f74206578697374212121000000000000000000600082015250565b7f4f776e61626c653a206e6577206f776e657220697320746865207a65726f206160008201527f6464726573730000000000000000000000000000000000000000000000000000602082015250565b7f4552433732313a207472616e736665722066726f6d20696e636f72726563742060008201527f6f776e6572000000000000000000000000000000000000000000000000000000602082015250565b7f4552433732313a20746f6b656e20616c7265616479206d696e74656400000000600082015250565b7f54484952445f574f524400000000000000000000000000000000000000000000600082015250565b7f4d696e74696e67206973206e6f742079657420656e61626c6564000000000000600082015250565b7f4552433732313a207472616e7366657220746f20746865207a65726f2061646460008201527f7265737300000000000000000000000000000000000000000000000000000000602082015250565b7f4552433732313a20617070726f766520746f2063616c6c657200000000000000600082015250565b7f5345434f4e445f574f5244000000000000000000000000000000000000000000600082015250565b7f4552433732313a2061646472657373207a65726f206973206e6f74206120766160008201527f6c6964206f776e65720000000000000000000000000000000000000000000000602082015250565b7f4552433732313a20617070726f76652063616c6c6572206973206e6f7420746f60008201527f6b656e206f776e6572206e6f7220617070726f76656420666f7220616c6c0000602082015250565b7f4552433732313a206d696e7420746f20746865207a65726f2061646472657373600082015250565b7f4d696e7420697320736f6c64206f757400000000000000000000000000000000600082015250565b7f2e6a736f6e000000000000000000000000000000000000000000000000000000600082015250565b7f4f776e61626c653a2063616c6c6572206973206e6f7420746865206f776e6572600082015250565b7f4552433732313a20696e76616c696420746f6b656e2049440000000000000000600082015250565b7f456163682077616c6c65742063616e6e6f74206d696e74206d6f72652074686160008201527f6e20320000000000000000000000000000000000000000000000000000000000602082015250565b7f4552433732313a20617070726f76616c20746f2063757272656e74206f776e6560008201527f7200000000000000000000000000000000000000000000000000000000000000602082015250565b7f46495253545f574f524400000000000000000000000000000000000000000000600082015250565b50565b7f4552433732313a2063616c6c6572206973206e6f7420746f6b656e206f776e6560008201527f72206e6f7220617070726f766564000000000000000000000000000000000000602082015250565b7f7769746864726177206661696c65640000000000000000000000000000000000600082015250565b61398f81613235565b811461399a57600080fd5b50565b6139a681613259565b81146139b157600080fd5b50565b6139bd81613265565b81146139c857600080fd5b50565b6139d4816132b1565b81146139df57600080fd5b5056fea2646970667358221220755e5aed3ffe847ca0ec7b5e50eeb837fb7f57fe0e9f3a47ce30d54217156d3a64736f6c634300080100333c73766720786d6c6e733d27687474703a2f2f7777772e77332e6f72672f323030302f73766727207072657365727665417370656374526174696f3d27784d696e594d696e206d656574272076696577426f783d273020302033353020333530273e3c7374796c653e2e62617365207b2066696c6c3a2077686974653b20666f6e742d66616d696c793a2073657269663b20666f6e742d73697a653a20323470783b207d3c2f7374796c653e3c726563742077696474683d273130302527206865696768743d2731303025272066696c6c3d27626c61636b27202f3e3c7465787420783d273530252720793d273530252720636c6173733d27626173652720646f6d696e616e742d626173656c696e653d276d6964646c652720746578742d616e63686f723d276d6964646c65273e",
  "linkReferences": {},
  "deployedLinkReferences": {}
}